:020000040800F2
:1000000000000120792100080121000807210008D3
:100010000D2100081321000819210008000000002C
:100020000000000000000000000000001F21000888
:100030002D210008000000003B2100084921000894
:10004000C9210008C9210008C9210008C9210008E8
:10005000C9210008C9210008C9210008C9210008D8
:10006000C9210008C9210008C9210008C9210008C8
:10007000C9210008C9210008C9210008C9210008B8
:10008000C9210008C9210008C9210008000000009A
:10009000000000000000000000000000C92100086E
:1000A000C9210008C9210008C9210008C921000888
:1000B000C9210008C9210008C9210008C921000878
:1000C000C9210008C9210008C9210008C921000868
:1000D000C9210008C9210008C9210008000000004A
:1000E000C9210008C9210008C9210008000000003A
:1000F000000000000000000000000000C92100080E
:1001000000000000C9210008C9210008C921000819
:1001100000000000000000000000000000000000DF
:10012000C9210008C9210008C9210008C921000807
:10013000C9210008000000000000000000000000CD
:10014000000000000000000000000000C9210008BD
:10015000C9210008C9210008C9210008C9210008D7
:10016000C9210008C92100080000000000000000AB
:10017000000000000000000000000000000000007F
:1001800000000000C921000800000000000000007D
:04019000C921000879
:1001980010B5054C237833B9044B13B10448AFF3B9
:1001A80000800123237010BD0C0000200000000017
:1001B800744C000808B5034B1BB103490348AFF35F
:1001C800008008BD0000000010000020744C0008EA
:1001D80081F0004102E000BF83F0004330B54FEAF0
:1001E80041044FEA430594EA050F08BF90EA020F5D
:1001F8001FBF54EA000C55EA020C7FEA645C7FEAF0
:10020800655C00F0E2804FEA5454D4EB5555B8BF12
:100218006D420CDD2C4480EA020281EA030382EA83
:10022800000083EA010180EA020281EA0303362D15
:1002380088BF30BD11F0004F4FEA01314FF4801CE8
:100248004CEA113102D0404261EB410113F0004FFA
:100258004FEA03334CEA133302D0524263EB4303B1
:1002680094EA050F00F0A780A4F10104D5F1200E4F
:100278000DDB02FA0EFC22FA05F2801841F10001AA
:1002880003FA0EF2801843FA05F359410EE0A5F17E
:1002980020050EF1200E012A03FA0EFC28BF4CF0AF
:1002A800020C43FA05F3C01851EBE37101F0004565
:1002B80007D54FF0000EDCF1000C7EEB00006EEB72
:1002C8000101B1F5801F1BD3B1F5001F0CD34908FC
:1002D8005FEA30004FEA3C0C04F101044FEA445253
:1002E80012F5800F80F09A80BCF1004F08BF5FEADA
:1002F800500C50F1000041EB045141EA050130BDBA
:100308005FEA4C0C404141EB0101013C28BFB1F5CB
:10031800801FE9D291F0000F04BF01460020B1FA16
:1003280081F308BF2033A3F10B03B3F120020CDAE9
:100338000C3208DD02F1140CC2F10C0201FA0CF0C7
:1003480021FA02F10CE002F11402D8BFC2F1200C2C
:1003580001FA02F120FA0CFCDCBF41EA0C019040E2
:10036800E41AA2BF01EB0451294330BD6FEA04042B
:100378001F3C1CDA0C340EDC04F11404C4F1200216
:1003880020FA04F001FA02F340EA030021FA04F328
:1003980045EA030130BDC4F10C04C4F1200220FA7F
:1003A80002F001FA04F340EA0300294630BD21FABD
:1003B80004F0294630BD94F0000F83F4801306BF83
:1003C80081F480110134013D4EE77FEA645C18BF77
:1003D8007FEA655C29D094EA050F08BF90EA020F0E
:1003E80005D054EA000C04BF1946104630BD91EA06
:1003F800030F1EBF0021002030BD5FEA545C05D109
:100408004000494128BF41F0004130BD14F5800447
:100418003CBF01F5801130BD01F0004545F0FE41BB
:1004280041F470014FF0000030BD7FEA645C1ABFF0
:10043800194610467FEA655C1CBF0B46024650EA27
:10044800013406BF52EA033591EA030F41F4002153
:1004580030BD00BF90F0000F04BF0021704730B5D9
:100468004FF4806404F132044FF000054FF00001AE
:1004780050E700BF90F0000F04BF0021704730B56F
:100488004FF4806404F1320410F0004548BF404244
:100498004FF000013EE700BF42004FEAE2014FEA99
:1004A80031014FEA02701FBF12F07F4393F07F4F74
:1004B80081F06051704732F07F4208BF704793F077
:1004C8007F4F04BF41F40021704730B54FF460748A
:1004D80001F0004521F000411CE700BF50EA01028D
:1004E80008BF704730B54FF000050AE050EA010236
:1004F80008BF704730B511F0004502D5404261EBA6
:1005080041014FF4806404F132045FEA915C3FF4E6
:10051800D8AE4FF003025FEADC0C18BF03325FEA83
:10052800DC0C18BF033202EBDC02C2F1200300FA34
:1005380003FC20FA02F001FA03FE40EA0E0021FA59
:1005480002F11444BDE600BF70B54FF0FF0C4CF447
:10055800E06C1CEA11541DBF1CEA135594EA0C0FF9
:1005680095EA0C0F00F0DEF82C4481EA030621EA34
:100578004C5123EA4C5350EA013518BF52EA03356F
:1005880041F4801143F4801338D0A0FB02CE4FF021
:100598000005E1FB02E506F00042E0FB03E54FF051
:1005A8000006E1FB03569CF0000F18BF4EF0010E49
:1005B800A4F1FF04B6F5007F64F5407404D25FEA45
:1005C8004E0E6D4146EB060642EAC62141EA5551F8
:1005D8004FEAC52040EA5E504FEACE2EB4F1FD0C3A
:1005E80088BFBCF5E06F1ED8BEF1004F08BF5FEAB8
:1005F800500E50F1000041EB045170BD06F000466A
:1006080046EA010140EA020081EA0301B4EB5C0416
:10061800C2BFD4EB0C0541EA045170BD41F480110E
:100628004FF0000E013C00F3AB8014F1360FDEBF33
:10063800002001F0004170BDC4F10004203C35DA0F
:100648000C341BDC04F11404C4F1200500FA05F392
:1006580020FA04F001FA05F240EA020001F0004233
:1006680021F0004110EBD37021FA04F642EB0601A9
:100678005EEA430E08BF20EAD37070BDC4F10C04D3
:10068800C4F1200500FA04F320FA05F001FA04F297
:1006980040EA020001F0004110EBD37041F1000183
:1006A8005EEA430E08BF20EAD37070BDC4F120058E
:1006B80000FA05F24EEA020E20FA04F301FA05F2F6
:1006C80043EA020321FA04F001F0004121FA04F29E
:1006D80020EA020000EBD3705EEA430E08BF20EA6E
:1006E800D37070BD94F0000F0FD101F000464000A8
:1006F80041EB010111F4801F08BF013CF7D041EA2A
:10070800060195F0000F18BF704703F0004652002D
:1007180043EB030313F4801F08BF013DF7D043EAFE
:100728000603704794EA0C0F0CEA135518BF95EAB4
:100738000C0F0CD050EA410618BF52EA4306D1D13B
:1007480081EA030101F000414FF0000070BD50EA5A
:10075800410606BF1046194652EA430619D094EAE4
:100768000C0F02D150EA013613D195EA0C0F05D1CE
:1007780052EA03361CBF104619460AD181EA030122
:1007880001F0004141F0FE4141F470014FF00000DA
:1007980070BD41F0FE4141F4780170BD70B54FF075
:1007A800FF0C4CF4E06C1CEA11541DBF1CEA1355F5
:1007B80094EA0C0F95EA0C0F00F0A7F8A4EB0504D7
:1007C80081EA030E52EA03354FEA013100F08880CE
:1007D8004FEA03334FF0805545EA131343EA126397
:1007E8004FEA022245EA111545EA10654FEA00264C
:1007F8000EF000419D4208BF964244F1FD0404F505
:10080800407402D25B084FEA3202B61A65EB030560
:100818005B084FEA32024FF480104FF4002CB6EB1D
:10082800020E75EB030E22BFB61A754640EA0C009D
:100838005B084FEA3202B6EB020E75EB030E22BFDD
:10084800B61A754640EA5C005B084FEA3202B6EB1E
:10085800020E75EB030E22BFB61A754640EA9C00DD
:100868005B084FEA3202B6EB020E75EB030E22BFAD
:10087800B61A754640EADC0055EA060E18D04FEA6B
:10088800051545EA16754FEA06164FEAC30343EA0B
:1008980052734FEAC2025FEA1C1CC0D111F4801FD8
:1008A8000BD141EA00014FF000004FF0004CB6E7D1
:1008B80011F4801F04BF01430020B4F1FD0C88BF70
:1008C800BCF5E06F3FF6AFAEB5EB030C04BFB6EB7B
:1008D800020C5FEA500C50F1000041EB045170BD6E
:1008E8000EF0004E4EEA113114EB5C04C2BFD4EB9B
:1008F8000C0541EA045170BD41F480114FF0000E1F
:10090800013C90E645EA060E8DE60CEA135594EA9A
:100918000C0F08BF95EA0C0F3FF43BAF94EA0C0F9D
:100928000AD150EA01347FF434AF95EA0C0F7FF412
:1009380025AF104619462CE795EA0C0F06D152EA66
:1009480003353FF4FDAE1046194622E750EA41064A
:1009580018BF52EA43067FF4C5AE50EA41047FF45B
:100968000DAF52EA43057FF4EBAE12E74A0011D20D
:1009780012F5001211D20DD56FF47873B3EB6252F1
:100988000ED44FEAC12343F0004343EA505323FAFD
:1009980002F070474FF00000704750EA013002D172
:1009A8004FF0FF3070474FF00000704753B94AB915
:1009B800002908BF00281CBF4FF0FF314FF0FF305F
:1009C80000F070B9ADF1080C6DE904CE00F006F83E
:1009D800DDF804E0DDE9022304B070472DE9F047B3
:1009E800089E0D4604460F46002B4AD18A4294467B
:1009F80065D9B2FA82F343B102FA03FCC3F12002CB
:100A08009F4020FA02F217439C404FEA1C4E1FFAFF
:100A18008CF5B7FBFEF1220C0EFB117742EA074278
:100A280001FB05F090420AD91CEB020201F1FF37E5
:100A380080F01C81904240F2198102396244121AF6
:100A4800A4B2B2FBFEF00EFB102244EA024400FB03
:100A580005F5A5420AD91CEB040400F1FF3280F029
:100A68000781A54240F204816444023840EA01400B
:100A7800641B00211EB1DC400023C6E90043BDE829
:100A8800F0878B4208D9002E00F0ED800021C6E9DE
:100A980000050846BDE8F087B3FA83F1002949D17B
:100AA800AB4202D3824200F2F880841A65EB03025B
:100AB80001201746002EE2D0C6E90047DFE702B959
:100AC800FFDEB2FA82F3002B40F090808A1A4FEAD8
:100AD8001C471FFA8CFE0121B2FBF7F507FB152016
:100AE800220C42EA00420EFB05F0904208D91CEBAA
:100AF800020205F1FF3802D2904200F2CB8045464F
:100B0800121AA4B2B2FBF7F007FB102244EA02441F
:100B18000EFB00FEA64508D91CEB040400F1FF32C9
:100B280002D2A64500F2BB801046A4EB0E0440EAB0
:100B380005409FE7C1F120078B4022FA07FC4CEAE9
:100B4800030C05FA01F420FA07F3FD404FEA1C49AB
:100B58002343B5FBF9F81FFA8CFE09FB18551C0C4A
:100B680044EA054408FB0EF5A54202FA01F200FA30
:100B780001F00BD91CEB040408F1FF3A80F08880DF
:100B8800A54240F28580A8F102086444641B9DB226
:100B9800B4FBF9F309FB134445EA044403FB0EFED6
:100BA800A64508D91CEB040403F1FF356CD2A64511
:100BB8006AD9023B644443EA0843A3FB0295A4EBC9
:100BC8000E04AC42C846AE4656D353D056B1B0EB2D
:100BD800080264EB0E0404FA07F7CA40CC40174336
:100BE800C6E9007418460021BDE8F087C3F120016A
:100BF80002FA03FC20FA01F225FA01F19D402A438A
:100C08004FEA1C471FFA8CFEB1FBF7F007FB1015E3
:100C1800110C41EA054100FB0EF58D4204FA03F47C
:100C280008D91CEB010100F1FF382FD28D422DD9D4
:100C380002386144491B92B2B1FBF7F507FB151165
:100C480042EA014205FB0EF1914208D91CEB02026F
:100C580005F1FF3816D2914214D9023D6244521A66
:100C680045EA004138E73146304608E73946E6E6C6
:100C78001046FBE64845A9D2B9EB020865EB0C0E15
:100C8800013BA3E74546EAE72B4694E74046D1E710
:100C9800D0467BE7023D624432E708460AE76444EF
:100CA800023842E7704700BF90B585B000AF002317
:100CB800FB600023BB600023FB8001224FF400711E
:100CC800354801F097FD354B1B6800225A6200BF7A
:100CD800324B1B685B6A092BFAD900224FF400716A
:100CE8002D4801F087FD01F0D3FA386000BF4FF4BA
:100CF8008071294801F066FD0346002B07D13B6847
:100D080003F10A0401F0C4FA03469C42EFD8234BCE
:100D18001B685B6AFB6001F0BBFA386000BF4FF4E8
:100D280080711D4801F04EFD0346002B07D03B683B
:100D380003F1320401F0ACFA03469C42EFD8174B9A
:100D48001B685B6ABB60BA68FB68D31A1846FFF772
:100D580081FB0FA3D3E90023FFF7F6FB02460B46FE
:100D6800104619464FF000024FF08043FFF716FD7A
:100D780002460B4610461946FFF7F8FD0346FB806E
:100D8800322001F091FAFB8818461437BD4690BD11
:100D98009CC420B07268A13F0000024028000020D7
:100DA80080B582B000AF0346FB80FB880F2B11D8BB
:100DB8004FF0804300225A63474B00225A630021B8
:100DC800464802F08DFA0021454802F089FA00F001
:100DD800A3F87DE0FB880F2B1CD9FB881D2B19D8A5
:100DE80000213E4802F02CFB00213D4802F028FB80
:100DF8004FF08043C8225A63374BC8225A630021F8
:100E0800364802F06DFA0021354802F069FA00F020
:100E180069F85DE0FB881D2B1CD9FB88272B19D8A6
:100E280000212E4802F00CFB00212D4802F008FB9F
:100E38004FF08043FA225A63274BFA225A63002163
:100E4800264802F04DFA0021254802F049FA00F040
:100E580049F83DE0FB88272B1ED9FB88312B1BD88E
:100E680000211E4802F0ECFA00211D4802F0E8FAC1
:100E78004FF080434FF496725A63174B4FF49672B3
:100E88005A630021154802F02BFA0021144802F099
:100E980027FA00F027F81BE00021104802F0D0FAEA
:100EA80000210F4802F0CCFA4FF080434FF49672BD
:100EB8005A63094B4FF496725A630021074802F0AF
:100EC8000FFA0021064802F00BFA00F00BF8FFE7D2
:100ED80000BF0837BD4680BD0004004070000020F8
:100EE800B800002080B500AF03220121094801F0B5
:100EF80081FC00220221074801F07CFC0322042126
:100F0800044801F077FC00220821024801F072FC35
:100F180000BF80BD0000024080B500AF0022012163
:100F2800094801F067FC00220221074801F062FC31
:100F380000220421044801F05DFC00220821024837
:100F480001F058FC00BF80BD0000024080B500AF32
:100F580000220121094801F04DFC03220221074823
:100F680001F048FC00220421044801F043FC03225C
:100F78000821024801F03EFC00BF80BD000002408D
:100F880080B500AF00220121094801F033FC00229E
:100F98000221074801F02EFC03220421044801F035
:100FA80029FC00220821024801F024FC00BF80BD72
:100FB8000000024080B500AF03220121094801F07A
:100FC80019FC00220221074801F014FC0022042128
:100FD800044801F00FFC00220821024801F00AFC35
:100FE80000BF80BD0000024080B500AF00210E4860
:100FF80002F026FA00210D4802F022FA4FF0804351
:101008004FF4C8725A630A4B4FF4C8725A630021EE
:10101800054802F065F90021044802F061F9FFF77C
:1010280061FF00BF80BD00BF70000020B800002035
:101038000004004080B500AF00210E4802F000FA1D
:1010480000210D4802F0FCF94FF080434FF4C872BC
:101058005A630A4B4FF4C8725A630021054802F0DC
:101068003FF90021044802F03BF9FFF76FFF00BF8A
:1010780080BD00BF70000020B800002000040040C0
:1010880080B500AF00210D4802F0DAF900210C48C4
:1010980002F0D6F94FF0804300225A63094B4FF40F
:1010A800AF725A630021054802F01AF9002104487A
:1010B80002F016F9FFF764FF00BF80BD7000002042
:1010C800B80000200004004080B500AF00210D48A2
:1010D80002F0B6F900210C4802F0B2F94FF0804353
:1010E8004FF4AF725A63094B00225A630021054836
:1010F80002F0F6F80021044802F0F2F8FFF75AFF70
:1011080000BF80BD70000020B8000020000400402F
:1011180080B500AF00210E4802F092F900210D4879
:1011280002F08EF94FF080434FF496725A630A4BDF
:101138004FF4C8725A630021054802F0D1F8002123
:10114800044802F0CDF8FFF7CDFE00BF80BD00BF18
:1011580070000020B80000200004004080B500AFF7
:1011680000210E4802F06CF900210D4802F068F9E0
:101178004FF080434FF4C8725A630A4B4FF496728B
:101188005A630021054802F0ABF80021044802F038
:10119800A7F8FFF7A7FE00BF80BD00BF70000020C2
:1011A800B80000200004004080B500AF00210E48C0
:1011B80002F046F900210D4802F042F94FF0804351
:1011C8004FF496725A630A4B4FF4C8725A6300215F
:1011D800054802F085F80021044802F081F8FFF77D
:1011E800B5FE00BF80BD00BF70000020B800002021
:1011F8000004004080B500AF00210E4802F020F93D
:1012080000210D4802F01CF94FF080434FF4C872DA
:101218005A630A4B4FF496725A630021054802F04C
:101228005FF80021044802F05BF8FFF78FFE00BF6B
:1012380080BD00BF70000020B800002000040040FE
:1012480080B582B000AF0346FB80FB88184600F0EB
:1012580006F800F097F800BF0837BD4680BD80B596
:1012680082B000AF0346FB80FFF71EFD0346FB80FC
:10127800FB881846FFF794FD00BF0837BD4680BDC0
:1012880080B582B000AF01213A4801F09BFA0346CD
:10129800FB710221374801F095FA0346BB71FB79CF
:1012A800012B1ED1BB79012B1BD10021324802F042
:1012B800C7F80021314802F0C3F84FF080434FF4DB
:1012C80096725A632E4B4FF496725A6300212A483D
:1012D80002F006F80021294802F002F8FFF702FEA2
:1012E80044E0FB79012B1DD1BB79002B1AD10021D9
:1012F800214802F0A5F80021204802F0A1F84FF09B
:1013080080434FF4AF725A631D4B00225A63002189
:10131800194801F0E5FF0021184801F0E1FFFFF747
:1013280049FE23E0FB79002B1DD1BB79012B1AD193
:101338000021114802F084F80021104802F080F8DA
:101348004FF0804300225A630D4B4FF4AF725A633B
:101358000021094801F0C4FF0021084801F0C0FF3E
:10136800FFF70EFE02E0FFF7D7FD00BF00BF08370A
:10137800BD4680BD0004024070000020B800002077
:101388000004004080B582B000AF0121514801F04F
:1013980019FA0346FB7102214E4801F013FA03467D
:1013A800BB71FB79012B23D1BB79012B20D1002202
:1013B8000421484801F01EFA0021474802F040F88D
:1013C8000021464802F03CF84FF080434FF49672F3
:1013D8005A63434B4FF496725A6300213E4801F01A
:1013E8007FFF00213D4801F07BFFFFF77BFD6CE0AC
:1013F800FB79012B23D1BB79002B20D103220421B7
:10140800344801F0F7F90021334802F019F80021B7
:10141800324802F015F84FF080434FF4AF725A6328
:101428002F4B4FF4AF725A6300212B4801F058FF3D
:1014380000212A4801F054FFFFF7BCFD45E0FB7985
:10144800002B23D1BB79012B20D103220421214871
:1014580001F0D0F90021204801F0F2FF00211F48D7
:1014680001F0EEFF4FF080434FF4AF725A631C4B0C
:101478004FF4AF725A630021174801F031FF002181
:10148800164801F02DFFFFF77BFD1EE00022042126
:10149800104801F0AFF900210F4801F0D1FF0021F9
:1014A8000E4801F0CDFF4FF0804300225A630C4BE9
:1014B80000225A630021084801F012FF0021074862
:1014C80001F00EFFFFF728FD00BF00BF0837BD463B
:1014D80080BD00BF0004024070000020B80000205A
:1014E8000004004080B582B000AF0346FB80FFF7E0
:1014F800DBFB0346FB80FB880E2B19D800211D4817
:1015080001F09EFF00211C4801F09AFF4FF0804334
:1015180000225A63194B00225A630021154801F032
:10152800DFFE0021144801F0DBFEFFF7F5FC1DE0AB
:10153800142000F0B9FE00210E4801F081FF0021BF
:101548000D4801F07DFF4FF080434FF496725A63C7
:101558000A4B4FF496725A630021064801F0C0FE08
:101568000021054801F0BCFEFFF7BCFC00BF0837AE
:10157800BD4680BD70000020B80000200004004077
:1015880080B584B000AF00F01DFE00F009F900F04E
:1015980073FB00F06FF900F0E1F900F055FA00F084
:1015A80017FB00F03FFB00F0C5FA764801F0E4FDB8
:1015B80000224FF40071744801F01CF90023FB81EC
:1015C8005A237B73714A3B1D92E803001860043369
:1015D800198007F10D014FF4FA7301226C4802F0EB
:1015E80052FF07F10D014FF4FA730622694802F021
:1015F800BFFE7B7B423B302B00F2C08001A252F839
:1016080023F000BF5B1700083D1700080517000806
:1016180021170008551700088517000885170008C6
:101628008517000885170008ED16000861170008DF
:101638008517000885170008D116000885170008C7
:101648008517000867170008851700088517000820
:1016580085170008851700086D1700087F17000810
:1016680073170008851700088517000885170008F4
:1016780085170008851700088517000885170008D2
:101688008517000885170008431700080F1700087A
:101698002B1700088517000885170008851700080C
:1016A8008517000885170008F31600088517000835
:1016B8008517000885170008DB160008851700083D
:1016C8008517000879170008FB891846FFF7B8FD49
:1016D80057E00021304801F0B3FE00212F4801F007
:1016E800AFFE4EE0FFF7CCFD4BE000212A4801F0A9
:1016F800A7FE0021294801F0A3FE42E0FB89184615
:10170800FFF7ADFD3DE00021234801F099FE0021DF
:10171800224801F095FE34E0FB891846FFF7E2FE07
:101728002FE000211C4801F08BFE00211B4801F02E
:1017380087FE26E0FFF726FE23E00021164801F089
:101748007FFE0021154801F07BFE1AE0FFF74CFCF4
:1017580017E0FFF76FFC14E0FFF7B6FC11E0FFF7A6
:101768008FFC0EE0FFF7D4FC0BE0FFF7F7FC08E076
:10177800FFF71AFD05E0FFF73DFD02E0FFF7CCFBA0
:1017880000BF26E728000020000002408C4C00081B
:10179800480100209001002070000020B8000020BF
:1017A80080B594B000AF07F120033022002118461D
:1017B80003F030FA07F10C0300221A605A609A60AD
:1017C800DA601A610023BB60284B1B6C274A43F080
:1017D80080531364254B1B6C03F08053BB60BB68BC
:1017E80000237B60224B1B6823F44043204A43F4C8
:1017F800004313601E4B1B6803F440437B607B6807
:1018080002233B620123FB6210233B630223BB6379
:101818000023FB6308233B6448237B640223BB64E7
:101828000423FB6407F12003184600F0FDFF03467C
:10183800002B01D000F086FA0F23FB6002233B61E6
:1018480000237B614FF48053BB610023FB6107F1E8
:101858000C030221184601F05FFA0346002B01D061
:1018680000F070FA00BF5037BD4680BD0038024016
:101878000070004080B58AB000AF07F1180300225D
:101888001A605A609A60DA6007F1100300221A6041
:101898005A603B4600221A605A609A60DA602D4B03
:1018A8002D4A1A602B4B47225A602A4B00229A6015
:1018B800284B4FF6FF72DA60264B00221A61254B3F
:1018C80000225A61234B00229A61224801F004FC4D
:1018D8000346002B01D000F035FA4FF48053BB616A
:1018E80007F1180319461B4801F0C6FF0346002BF1
:1018F80001D000F027FA174801F006FE0346002B36
:1019080001D000F01FFA00233B6100237B6107F13F
:10191800100319460F4802F06DFC0346002B01D056
:1019280000F010FA00233B6001237B600023BB60BA
:101938000023FB603B4600221946064801F03DFEA5
:101948000346002B01D000F0FDF900BF2837BD4643
:1019580080BD00BF280000200000014080B58EB087
:1019680000AF07F1280300221A605A609A60DA6013
:1019780007F1200300221A605A603B1D00221A60FA
:101988005A609A60DA601A615A619A612D4B4FF079
:1019980080421A602B4B47225A602A4B00229A60D9
:1019A800284B40F2F312DA60264B00221A61254BCD
:1019B80000229A61234801F08FFB0346002B01D0D7
:1019C80000F0C0F94FF48053BB6207F128031946B1
:1019D8001C4801F051FF0346002B01D000F0B2F97A
:1019E800184801F023FC0346002B01D000F0AAF9A7
:1019F80000233B6200237B6207F12003194611484C
:101A080002F0F8FB0346002B01D000F09BF960239D
:101A18007B600023BB600023FB6000237B613B1DD0
:101A280000221946074801F065FE0346002B01D045
:101A380000F088F9034800F03BFA00BF3837BD468C
:101A480080BD00BF7000002080B58EB000AF07F1E8
:101A5800280300221A605A609A60DA6007F12003AE
:101A680000221A605A603B1D00221A605A609A6070
:101A7800DA601A615A619A612C4B2D4A1A602B4B15
:101A880047225A60294B00229A60284B40F2F312F1
:101A9800DA60264B00221A61244B00229A612348FF
:101AA80001F01AFB0346002B01D000F04BF94FF46C
:101AB8008053BB6207F1280319461C4801F0DCFE7D
:101AC8000346002B01D000F03DF9184801F0AEFBA9
:101AD8000346002B01D000F035F900233B620023B8
:101AE8007B6207F120031946104802F083FB034686
:101AF800002B01D000F026F960237B600023BB6037
:101B08000023FB6000237B613B1D00221946074828
:101B180001F0F0FD0346002B01D000F013F9034853
:101B280000F0C6F900BF3837BD4680BDB8000020B8
:101B38000004004080B588B000AF3B1D00221A6049
:101B48005A609A60DA601A615A619A611E4B1F4A9C
:101B58001A601D4B4FF496525A601B4B00229A6034
:101B6800194B4FF6FF72DA60174B00221A61164BB9
:101B780000229A61144801F0AFFA0346002B01D005
:101B880000F0E0F8104801F051FB0346002B01D0AB
:101B980000F0D8F860237B600023BB600023FB6063
:101BA80000237B613B1D00221946074801F0A2FD76
:101BB8000346002B01D000F0C5F8034800F078F97F
:101BC80000BF2037BD4680BD000100200044014011
:101BD80080B500AF114B124A1A60104B4FF41652E1
:101BE8005A600E4B00229A600C4B0022DA600B4BB5
:101BF80000221A61094B0C225A61084B00229A6193
:101C0800064B0022DA61054802F062FB0346002B0E
:101C180001D000F097F800BF80BD00BF4801002048
:101C28000010014080B500AF114B124A1A60104BEA
:101C38004FF496525A600E4B00229A600C4B0022C9
:101C4800DA600B4B00221A61094B0C225A61084BCF
:101C580000229A61064B0022DA61054802F038FB3F
:101C68000346002B01D000F06DF800BF80BD00BF17
:101C7800900100200014014080B588B000AF07F142
:101C88000C0300221A605A609A60DA601A61002315
:101C9800BB60294B1B6B284A43F001031363264B97
:101CA8001B6B03F00103BB60BB6800237B60224B06
:101CB8001B6B214A43F0020313631F4B1B6B03F09A
:101CC80002037B607B68002240F20F211B4800F072
:101CD80091FD002204211A4800F08CFD40F20F23E8
:101CE800FB6001233B6100237B610023BB6107F19B
:101CF8000C031946114800F0E1FB0323FB600023A5
:101D08003B6100237B6107F10C0319460C4800F086
:101D1800D5FB0423FB6001233B6100237B61002387
:101D2800BB6107F10C031946054800F0C7FB00BF6B
:101D38002037BD4680BD00BF003802400000024089
:101D48000004024080B400AF72B600BFFEE7000096
:101D580080B483B000AF00237B60104B5B6C0F4AEC
:101D680043F4804353640D4B5B6C03F480437B6006
:101D78007B6800233B60094B1B6C084A43F0805387
:101D88001364064B1B6C03F080533B603B6800BF39
:101D98000C37BD465DF8047B704700BF0038024031
:101DA80080B58CB000AF786007F11C0300221A6080
:101DB8005A609A60DA601A617B681B68374A9342F6
:101DC8002DD10023BB61364B5B6C354A43F00103D0
:101DD8005364334B5B6C03F00103BB61BB690023A5
:101DE8007B612F4B1B6B2E4A43F0010313632C4B73
:101DF8001B6B03F001037B617B694FF48073FB610C
:101E080002233B6200237B620023BB620123FB6247
:101E180007F11C031946234800F050FB3AE07B68A1
:101E28001B68B3F1804F0ED100233B611C4B1B6C28
:101E38001B4A43F001031364194B1B6C03F00103A5
:101E48003B613B6926E07B681B68174A93420ED1C9
:101E58000023FB60124B1B6C114A43F0020313640E
:101E68000F4B1B6C03F00203FB60FB6812E07B68FE
:101E78001B680E4A93420DD10023BB60084B5B6C74
:101E8800074A43F400335364054B5B6C03F4003397
:101E9800BB60BB6800BF3037BD4680BD0000014055
:101EA80000380240000002400004004000440140A5
:101EB80080B58AB000AF786007F1140300221A6079
:101EC8005A609A60DA601A617B681B68B3F1804FC8
:101ED8001ED100233B61344B1B6B334A43F0010393
:101EE8001363314B1B6B03F001033B613B692023F8
:101EF8007B610223BB610023FB6100233B6201235A
:101F08007B6207F114031946284800F0D7FA47E026
:101F18007B681B68264A93421ED10023FB60224B34
:101F28001B6B214A43F0010313631F4B1B6B03F028
:101F38000103FB60FB6840237B610223BB61002334
:101F4800FB6100233B6202237B6207F114031946FD
:101F5800164800F0B3FA23E07B681B68154A9342E1
:101F68001ED10023BB60104B1B6B0F4A43F00203CA
:101F780013630D4B1B6B03F00203BB60BB684FF48C
:101F880080737B610223BB610023FB6100233B62FA
:101F980003237B6207F114031946074800F08EFA01
:101FA80000BF2837BD4680BD00380240000002400F
:101FB80000040040004401400004024080B58CB099
:101FC80000AF786007F11C0300221A605A609A601B
:101FD800DA601A617B681B68424A93424BD100233E
:101FE800BB61414B5B6C404A43F0100353643E4B6A
:101FF8005B6C03F01003BB61BB6900237B613A4B48
:102008001B6B394A43F001031363374B1B6B03F017
:1020180001037B617B6900233B61334B1B6B324AB5
:1020280043F002031363304B1B6B03F002033B6165
:102038003B694FF48063FB6102233B6200237B62B0
:102048000323BB620723FB6207F11C0319462748D9
:1020580000F034FA4023FB6102233B6200237B62D9
:102068000323BB620723FB6207F11C0319462048C0
:1020780000F024FA31E07B681B681E4A93422CD199
:102088000023FB60184B5B6C174A43F02003536432
:10209800154B5B6C03F02003FB60FB680023BB60FF
:1020A800114B1B6B104A43F0010313630E4B1B6B60
:1020B80003F00103BB60BB684FF4C053FB6102230C
:1020C8003B6200237B620323BB620823FB6207F1A8
:1020D8001C031946054800F0F1F900BF3037BD462A
:1020E80080BD00BF001001400038024000000240DF
:1020F800000402400014014080B400AFFEE780B441
:1021080000AFFEE780B400AFFEE780B400AFFEE7A3
:1021180080B400AFFEE780B400AF00BFBD465DF8F5
:10212800047B704780B400AF00BFBD465DF8047BF8
:10213800704780B400AF00BFBD465DF8047B7047B0
:1021480080B500AF00F090F800BF80BD80B400AF4C
:10215800064BD3F88830054A43F47003C2F8883038
:1021680000BFBD465DF8047B704700BF00ED00E08E
:10217800DFF834D0FFF7EAFF0C480D490D4A002379
:1021880002E0D458C4500433C4188C42F9D30A4A24
:102198000A4C002301E013600432A242FBD302F090
:1021A80041FDFFF7EDF97047000001200000002015
:1021B8000C000020BC4C00080C000020DC010020B2
:1021C800FEE7000080B500AF0E4B1B680D4A43F4D4
:1021D800007313600B4B1B680A4A43F48063136057
:1021E800084B1B68074A43F480731360032000F010
:1021F80031F90F2000F008F8FFF7AAFD0023184670
:1022080080BD00BF003C024080B582B000AF78605E
:10221800124B1A68124B1B7819464FF47A73B3FBAA
:10222800F1F3B2FBF3F3184600F03BF90346002B39
:1022380001D001230EE07B680F2B0AD800227968B1
:102248004FF0FF3000F011F9064A7B681360002355
:1022580000E0012318460837BD4680BD0000002075
:10226800080000200400002080B400AF064B1B7853
:102278001A46064B1B681344044A136000BFBD4648
:102288005DF8047B704700BF08000020D8010020DB
:1022980080B400AF034B1B681846BD465DF8047B4D
:1022A800704700BFD801002080B584B000AF7860C7
:1022B800FFF7EEFFB8607B68FB60FB68B3F1FF3F98
:1022C80005D00A4B1B781A46FB681344FB6000BF15
:1022D800FFF7DEFF0246BB68D31AFA689A42F7D8BE
:1022E80000BF00BF1037BD4680BD00BF08000020FA
:1022F80080B485B000AF78607B6803F00703FB60AB
:102308000C4BDB68BB60BA684FF6FF031340BB6039
:10231800FB681A02BB68134343F0BF6343F40033FE
:10232800BB60044ABB68D36000BF1437BD465DF884
:10233800047B704700ED00E080B400AF044BDB681D
:102348001B0A03F007031846BD465DF8047B704777
:1023580000ED00E080B483B000AF03463960FB7144
:1023680097F90730002B0ADB3B68DAB20C4997F97A
:1023780007301201D2B20B4483F800230AE03B680D
:10238800DAB20849FB7903F00F03043B1201D2B219
:102398000B441A7600BF0C37BD465DF8047B7047C6
:1023A80000E100E000ED00E080B489B000AFF86023
:1023B800B9607A60FB6803F00703FB61FB69C3F14E
:1023C8000703042B28BF0423BB61FB690433062BD6
:1023D80002D9FB69033B00E000237B614FF0FF3229
:1023E800BB6902FA03F3DA43BB681A407B699A4077
:1023F8004FF0FF317B6901FA03F3D9437B680B4047
:10240800134318462437BD465DF8047B7047000027
:1024180080B582B000AF78607B68013BB3F1807F04
:1024280001D301230FE00A4A7B68013B53600F2167
:102438004FF0FF30FFF78EFF054B00229A60044BE8
:1024480007221A60002318460837BD4680BD00BF22
:1024580010E000E080B582B000AF78607868FFF7E0
:1024680047FF00BF0837BD4680BD80B586B000AFC6
:102478000346B9607A60FB7300237B61FFF75CFF5A
:1024880078617A68B9687869FFF78EFF024697F92C
:102498000F3011461846FFF75DFF00BF1837BD46DD
:1024A80080BD80B582B000AF78607868FFF7B0FF74
:1024B800034618460837BD4680BD000080B489B081
:1024C80000AF7860396000237B6100233B61002303
:1024D800BB610023FB6159E10122FB6902FA03F3A6
:1024E8007B613B681B687A6913403B613A697B6989
:1024F8009A4240F048813B685B6803F00303012B74
:1025080005D03B685B6803F00303022B30D17B687E
:102518009B68BB61FB695B00032202FA03F3DB43A0
:10252800BA691340BB613B68DA68FB695B0002FA71
:1025380003F3BA691343BB617B68BA699A607B6825
:102548005B68BB610122FB6902FA03F3DB43BA69EA
:102558001340BB613B685B681B0903F00102FB6920
:1025680002FA03F3BA691343BB617B68BA695A601C
:102578003B685B6803F00303032B17D07B68DB68B9
:10258800BB61FB695B00032202FA03F3DB43BA6910
:102598001340BB613B689A68FB695B0002FA03F36E
:1025A800BA691343BB617B68BA69DA603B685B68E8
:1025B80003F00303022B23D1FB69DA087B68083296
:1025C80053F82230BB61FB6903F007039B000F221D
:1025D80002FA03F3DB43BA691340BB613B681A692B
:1025E800FB6903F007039B0002FA03F3BA6913437C
:1025F800BB61FB69DA087B680832B96943F82210C5
:102608007B681B68BB61FB695B00032202FA03F36A
:10261800DB43BA691340BB613B685B6803F00302A4
:10262800FB695B0002FA03F3BA691343BB617B6879
:10263800BA691A603B685B6803F44033002B00F00A
:10264800A2800023FB60574B5B6C564A43F48043DF
:102658005364544B5B6C03F48043FB60FB68524A41
:10266800FB699B08023352F82330BB61FB6903F016
:1026780003039B000F2202FA03F3DB43BA691340FA
:10268800BB617B68494A934219D07B68484A9342A8
:1026980013D07B68474A93420DD07B68464A9342E1
:1026A80007D07B68454A934201D1042308E00723F9
:1026B80006E0032304E0022302E0012300E00023F4
:1026C800FA6902F0030292009340BA691343BB61AE
:1026D8003549FB699B080233BA6941F82320384B16
:1026E8009B68BB613B69DB43BA691340BB613B68CC
:1026F8005B6803F48013002B03D0BA693B6913436A
:10270800BB612F4ABB6993602D4BDB68BB613B699A
:10271800DB43BA691340BB613B685B6803F4001391
:10272800002B03D0BA693B691343BB61244ABB69D8
:10273800D360234B5B68BB613B69DB43BA691340D9
:10274800BB613B685B6803F40033002B03D0BA69B4
:102758003B691343BB611A4ABB695360184B1B683A
:10276800BB613B69DB43BA691340BB613B685B688B
:1027780003F48033002B03D0BA693B691343BB6170
:102788000F4ABB691360FB690133FB61FB690F2BBF
:102798007FF6A2AE00BF00BF2437BD465DF8047BBC
:1027A800704700BF00380240003801400000024076
:1027B8000004024000080240000C024000100240E1
:1027C800003C014080B485B000AF78600B467B8048
:1027D8007B681A697B881340002B02D00123FB73A6
:1027E80001E00023FB73FB7B18461437BD465DF8F8
:1027F800047B704780B483B000AF78600B467B8061
:1028080013467B707B78002B03D07A887B689A61AB
:1028180003E07B881A047B689A6100BF0C37BD46C9
:102828005DF8047B7047000080B586B000AF786023
:102838007B68002B01D1012367E27B681B6803F0EA
:102848000103002B75D0884B9B6803F00C03042B05
:102858000CD0854B9B6803F00C03082B12D1824BDC
:102868005B6803F48003B3F5800F0BD17E4B1B68C4
:1028780003F40033002B5BD07B685B68002B57D1D7
:10288800012342E27B685B68B3F5803F06D1764B53
:102898001B68754A43F4803313601DE07B685B68EE
:1028A800B3F5A02F0CD1704B1B686F4A43F48023FB
:1028B80013606D4B1B686C4A43F4803313600BE064
:1028C800694B1B68684A23F480331360664B1B68A6
:1028D800654A23F4802313607B685B68002B13D060
:1028E800FFF7D6FC386108E0FFF7D2FC02463B69E7
:1028F800D31A642B01D9032307E25B4B1B6803F44B
:102908000033002BF0D014E0FFF7C2FC386108E078
:10291800FFF7BEFC02463B69D31A642B01D9032397
:10292800F3E1514B1B6803F40033002BF0D100E0B6
:1029380000BF7B681B6803F00203002B63D04A4B7F
:102948009B6803F00C03002B0BD0474B9B6803F0EC
:102958000C03082B1CD1444B5B6803F48003002B49
:1029680016D1414B1B6803F00203002B05D07B688E
:10297800DB68012B01D00123C7E13B4B1B6823F027
:10298800F8027B681B69DB00374913430B603AE0A8
:102998007B68DB68002B20D0344B01221A60FFF7DC
:1029A80077FC386108E0FFF773FC02463B69D31AED
:1029B800022B01D90323A8E12B4B1B6803F0020368
:1029C800002BF0D0284B1B6823F0F8027B681B69AA
:1029D800DB00254913430B6015E0244B00221A60E5
:1029E800FFF756FC386108E0FFF752FC02463B69E6
:1029F800D31A022B01D9032387E11B4B1B6803F071
:102A08000203002BF0D17B681B6803F00803002B3E
:102A180036D07B685B69002B16D0154B01221A60F3
:102A2800FFF736FC386108E0FFF732FC02463B69E5
:102A3800D31A022B01D9032367E10B4B5B6F03F019
:102A48000203002BF0D01BE0094B00221A60FFF7AD
:102A58001FFC38610EE0FFF71BFC02463B69D31AE6
:102A6800022B07D9032350E10038024000004742F7
:102A7800800E4742884B5B6F03F00203002BEAD1BC
:102A88007B681B6803F00403002B00F09780002389
:102A9800FB75814B1B6C03F08053002B0FD1002377
:102AA800BB607D4B1B6C7C4A43F0805313647A4BAC
:102AB8001B6C03F08053BB60BB680123FB75774B2D
:102AC8001B6803F48073002B18D1744B1B68734A7E
:102AD80043F480731360FFF7DBFB386108E0FFF70E
:102AE800D7FB02463B69D31A022B01D903230CE119
:102AF8006A4B1B6803F48073002BF0D07B689B68DB
:102B0800012B06D1644B1B6F634A43F00103136723
:102B18001CE07B689B68052B0CD15F4B1B6F5E4AE2
:102B280043F0040313675C4B1B6F5B4A43F00103DC
:102B380013670BE0584B1B6F574A23F001031367C9
:102B4800554B1B6F544A23F0040313677B689B683B
:102B5800002B15D0FFF79CFB38610AE0FFF798FBC4
:102B680002463B69D31A41F28832934201D90323C2
:102B7800CBE0494B1B6F03F00203002BEED014E0AF
:102B8800FFF786FB38610AE0FFF782FB02463B69E4
:102B9800D31A41F28832934201D90323B5E03E4B60
:102BA8001B6F03F00203002BEED1FB7D012B05D137
:102BB800394B1B6C384A23F0805313647B689B693C
:102BC800002B00F0A180344B9B6803F00C03082B0A
:102BD8005CD07B689B69022B41D1314B00221A6083
:102BE800FFF756FB386108E0FFF752FB02463B69E6
:102BF800D31A022B01D9032387E0274B1B6803F064
:102C08000073002BF0D17B68DA697B681B6A1A4372
:102C18007B685B6A9B011A437B689B6A5B08013B84
:102C28001B041A437B68DB6A1B061B4913434B6072
:102C38001B4B01221A60FFF72BFB386108E0FFF7F6
:102C480027FB02463B69D31A022B01D903235CE018
:102C5800114B1B6803F00073002BF0D054E0104BAD
:102C680000221A60FFF714FB386108E0FFF710FB39
:102C780002463B69D31A022B01D9032345E0064BD0
:102C88001B6803F00073002BF0D13DE07B689B6963
:102C9800012B07D1012338E00038024000700040C2
:102CA800600047421B4B5B68FB607B689B69012B9C
:102CB80028D0FB6803F480027B68DB699A4221D143
:102CC800FB6803F03F027B681B6A9A421AD1FA68D4
:102CD80047F6C07313407A68526A9201934211D141
:102CE800FB6803F440327B689B6A5B08013B1B046A
:102CF8009A4207D1FB6803F070627B68DB6A1B06A7
:102D08009A4201D0012300E0002318461837BD4637
:102D180080BD00BF0038024080B584B000AF786045
:102D280039607B68002B01D10123CCE0684B1B681C
:102D380003F007033A689A420CD9654B3A68D2B255
:102D48001A70634B1B6803F007033A689A4201D074
:102D58000123B8E07B681B6803F00203002B20D036
:102D68007B681B6803F00403002B05D0594B9B6854
:102D7800584A43F4E05393607B681B6803F00803E8
:102D8800002B05D0534B9B68524A43F46043936031
:102D9800504B9B6823F0F0027B689B684D491343B6
:102DA8008B607B681B6803F00103002B44D07B68B1
:102DB8005B68012B07D1474B1B6803F40033002BDA
:102DC80019D101237FE07B685B68022B03D07B6805
:102DD8005B68032B07D13F4B1B6803F00073002B84
:102DE80009D101236FE03B4B1B6803F00203002B62
:102DF80001D1012367E0374B9B6823F003027B680E
:102E08005B68344913438B60FFF742FAF8600AE0C5
:102E1800FFF73EFA0246FB68D31A41F28832934222
:102E280001D903234FE02B4B9B6803F00C027B680E
:102E38005B689B009A42EBD1254B1B6803F00703A4
:102E48003A689A420CD2224B3A68D2B21A70204B96
:102E58001B6803F007033A689A4201D0012332E065
:102E68007B681B6803F00403002B08D0194B9B6890
:102E780023F4E0527B68DB68164913438B607B6858
:102E88001B6803F00803002B09D0124B9B6823F43E
:102E980060427B681B69DB000E4913438B6000F0BE
:102EA80021F802460B4B9B681B0903F00F030A49E4
:102EB800CB5C22FA03F3094A1360094B1B681846D6
:102EC800FFF7A2F9002318461037BD4680BD00BFA2
:102ED800003C024000380240944C000800000020EA
:102EE800040000202DE9B04F90B000AF00237B63B1
:102EF8000023FB6300233B630023BB63594B9B68A0
:102F080003F00C03082B0DD0082B00F2A180002B36
:102F180002D0042B03D09BE0534BBB639BE0534B85
:102F2800BB6398E04F4B5B6803F03F037B634D4BFB
:102F38005B6803F48003002B28D04A4B5B689B092D
:102F480000223B627A623B6AC3F308000021474BC8
:102F580003FB01F2002300FB03F31344434AA0FBE5
:102F68000212FA620A46BA62FA6A1344FB627B6B7F
:102F78000022BB61FA61D7E90623D7E90A01FDF708
:102F880015FD02460B461346FB6353E0354B5B6861
:102F98009B0900223B617A613B69C3F3080A4FF041
:102FA800000B52465B464FF000004FF000015901FC
:102FB80041EAD261500102460B46B2EB0A0863EBC4
:102FC8000B094FF000024FF000034FEA891343EA60
:102FD80098634FEA8812B2EB080463EB09054FF0D7
:102FE80000024FF00003EB0043EA5473E20014467A
:102FF8001D4614EB0A033B6045EB0B037B604FF067
:1030080000024FF00003D7E9004529468B0221460C
:1030180043EA915321468A02104619467B6B0022E7
:10302800BB60FA60D7E90223FDF7C0FC02460B46F5
:103038001346FB630B4B5B681B0C03F00303013364
:103048005B003B63FA6B3B6BB2FBF3F3BB6302E0E1
:10305800054BBB6300BFBB6B18464037BD46BDE898
:10306800B08F00BF003802400024F40040787D0192
:1030780080B400AF034B1B681846BD465DF8047B5F
:10308800704700BF0000002080B500AFFFF7F0FFD9
:103098000246054B9B689B0A03F007030349CB5C78
:1030A80022FA03F3184680BD00380240A44C0008F9
:1030B80080B500AFFFF7DCFF0246054B9B685B0B52
:1030C80003F007030349CB5C22FA03F3184680BDDB
:1030D80000380240A44C000880B582B000AF786088
:1030E8007B68002B01D1012341E07B6893F83D30D8
:1030F800DBB2002B06D17B68002283F83C2078687D
:10310800FEF74EFE7B68022283F83D207B681A6832
:103118007B6804331946104600F076FC7B68012270
:1031280083F846207B68012283F83E207B680122D1
:1031380083F83F207B68012283F840207B680122C6
:1031480083F841207B68012283F842207B680122B2
:1031580083F843207B68012283F844207B6801229E
:1031680083F845207B68012283F83D200023184618
:103178000837BD4680BD000080B485B000AF7860D8
:103188007B6893F83D30DBB2012B01D001233CE092
:103198007B68022283F83D207B681B681E4A9342A5
:1031A80018D07B681B68B3F1804F13D07B681B680D
:1031B8001A4A93420ED07B681B68194A934209D079
:1031C8007B681B68174A934204D07B681B68164AC1
:1031D800934211D17B681B689B6803F00703FB606F
:1031E800FB68062B10D07B681B681A687B681B6815
:1031F80042F001021A6007E07B681B681A687B6866
:103208001B6842F001021A60002318461437BD46B5
:103218005DF8047B704700BF0000014000040040D7
:1032280000080040000C00400040014080B582B01A
:1032380000AF78607B68002B01D1012341E07B68F7
:1032480093F83D30DBB2002B06D17B68002283F86F
:103258003C20786800F039F87B68022283F83D202A
:103268007B681A687B6804331946104600F0CCFB6B
:103278007B68012283F846207B68012283F83E2080
:103288007B68012283F83F207B68012283F8402075
:103298007B68012283F841207B68012283F8422061
:1032A8007B68012283F843207B68012283F844204D
:1032B8007B68012283F845207B68012283F83D2042
:1032C800002318460837BD4680BD80B483B000AFE0
:1032D800786000BF0C37BD465DF8047B704700007E
:1032E80080B584B000AF786039603B68002B09D1A5
:1032F8007B6893F83E30DBB2012B14BF0123002317
:10330800DBB222E03B68042B09D17B6893F83F309D
:10331800DBB2012B14BF01230023DBB215E03B68AD
:10332800082B09D17B6893F84030DBB2012B14BF1E
:1033380001230023DBB208E07B6893F84130DBB25D
:10334800012B14BF01230023DBB2002B01D0012382
:1033580068E03B68002B04D17B68022283F83E209A
:1033680013E03B68042B04D17B68022283F83F20DA
:103378000BE03B68082B04D17B68022283F84020CD
:1033880003E07B68022283F841207B681B680122E6
:103398003968184600F008FF7B681B68234A934287
:1033A80007D17B681B685A6C7B681B6842F4004233
:1033B8005A647B681B681D4A934218D07B681B6857
:1033C800B3F1804F13D07B681B68194A93420ED023
:1033D8007B681B68174A934209D07B681B68164AAA
:1033E800934204D07B681B68144A934211D17B68CE
:1033F8001B689B6803F00703FB60FB68062B10D073
:103408007B681B681A687B681B6842F001021A60B7
:1034180007E07B681B681A687B681B6842F001023A
:103428001A60002318461037BD4680BD00000140D1
:103438000004004000080040000C0040004001402B
:1034480080B582B000AF786039607B681B68002265
:103458003968184600F0A8FE7B681B68294A934221
:1034680017D17B681B681A6A41F211131340002BAD
:103478000FD17B681B681A6A40F244431340002B43
:1034880007D17B681B685A6C7B681B6822F4004272
:103498005A647B681B681A6A41F211131340002BA7
:1034A8000FD17B681B681A6A40F244431340002B13
:1034B80007D17B681B681A687B681B6822F00102C9
:1034C8001A603B68002B04D17B68012283F83E20F8
:1034D80013E03B68042B04D17B68012283F83F206A
:1034E8000BE03B68082B04D17B68012283F840205D
:1034F80003E07B68012283F841200023184608373F
:10350800BD4680BD0000014080B582B000AF786044
:103518007B68002B01D1012341E07B6893F83D30A3
:10352800DBB2002B06D17B68002283F83C20786848
:1035380000F039F87B68022283F83D207B681A681E
:103548007B6804331946104600F05EFA7B68012256
:1035580083F846207B68012283F83E207B6801229D
:1035680083F83F207B68012283F840207B68012292
:1035780083F841207B68012283F842207B6801227E
:1035880083F843207B68012283F844207B6801226A
:1035980083F845207B68012283F83D2000231846E4
:1035A8000837BD4680BD80B483B000AF786000BFE7
:1035B8000C37BD465DF8047B704780B586B000AF18
:1035C800F860B9607A600023FB75FB6893F83C30BB
:1035D800012B01D1022388E0FB68012283F83C20FB
:1035E8007B68002B1BD1FB681868BB681968BB682F
:1035F8005A68BB68DB6800F01FFCFB681B689A69A7
:10360800FB681B6822F00C029A61FB681B689969C9
:10361800BB689A68FB681B680A439A6160E07B682C
:10362800042B1CD1FB681868BB681968BB685A680A
:10363800BB68DB6800F097FCFB681B689A69FB684D
:103648001B6822F440629A61FB681B689969BB6831
:103658009B681A02FB681B680A439A6140E07B6812
:10366800082B1BD1FB681868BB681968BB685A68C7
:10367800BB68DB6800F0E4FCFB681B68DA69FB6880
:103688001B6822F00C02DA61FB681B68D969BB6809
:103698009A68FB681B680A43DA6121E07B680C2B97
:1036A8001CD1FB681868BB681968BB685A68BB6896
:1036B800DB6800F001FDFB681B68DA69FB681B68C2
:1036C80022F44062DA61FB681B68D969BB689B68B1
:1036D8001A02FB681B680A43DA6101E00123FB75E3
:1036E800FB68002283F83C20FB7D18461837BD464E
:1036F80080BD000080B586B000AFF860B9607A6020
:103708000023FB75FB6893F83C30012B01D10223A1
:10371800AEE0FB68012283F83C207B680C2B00F2AA
:103728009F8001A252F823F0653700086938000825
:103738006938000869380008A537000869380008A2
:103748006938000869380008E73700086938000850
:10375800693800086938000827380008FB681B68C2
:10376800B968184600F0DCF9FB681B689A69FB68C1
:103778001B6842F008029A61FB681B689A69FB683B
:103788001B6822F004029A61FB681B689969BB6890
:103798001A69FB681B680A439A6164E0FB681B6846
:1037A800B968184600F022FAFB681B689A69FB683A
:1037B8001B6842F400629A61FB681B689A69FB689F
:1037C8001B6822F480629A61FB681B689969BB6870
:1037D8001B691A02FB681B680A439A6143E0FB688D
:1037E8001B68B968184600F06DFAFB681B68DA694F
:1037F800FB681B6842F00802DA61FB681B68DA693B
:10380800FB681B6822F00402DA61FB681B68D9694F
:10381800BB681A69FB681B680A43DA6123E0FB6826
:103828001B68B968184600F0B7FAFB681B68DA69C4
:10383800FB681B6842F40062DA61FB681B68DA699E
:10384800FB681B6822F48062DA61FB681B68D9692F
:10385800BB681B691A02FB681B680A43DA6102E04D
:103868000123FB7500BFFB68002283F83C20FB7D29
:1038780018461837BD4680BD80B584B000AF786063
:1038880039600023FB737B6893F83C30012B01D12E
:103898000223B4E07B68012283F83C207B68022283
:1038A80083F83D207B681B689B68BB60BB6823F07E
:1038B8007703BB60BB6823F47F43BB607B681B68EE
:1038C800BA689A603B681B68B3F5005F3ED0B3F5F1
:1038D800005F00F28780B3F5805F00F08680B3F563
:1038E800805F7FD8702B1AD0702B7BD8602B50D07C
:1038F800602B77D8502B3CD0502B73D8402B58D006
:10390800402B6FD8302B64D0302B6BD8202B60D055
:10391800202B67D8002B5CD0102B5AD062E07B6834
:1039280018683B6899683B685A683B68DB6800F030
:103938001BFC7B681B689B68BB60BB6843F0770314
:10394800BB607B681B68BA689A604FE07B68186840
:103958003B6899683B685A683B68DB6800F004FC80
:103968007B681B689A687B681B6842F480429A608F
:103978003CE07B6818683B6859683B68DB681A4616
:1039880000F0C2FA7B681B685021184600F0D1FB92
:103998002CE07B6818683B6859683B68DB681A4606
:1039A80000F01EFB7B681B686021184600F0C1FB15
:1039B8001CE07B6818683B6859683B68DB681A46F6
:1039C80000F0A2FA7B681B684021184600F0B1FBA2
:1039D8000CE07B681A683B681B681946104600F0C3
:1039E800A8FB03E00123FB7300E000BF7B68012212
:1039F80083F83D207B68002283F83C20FB7B184637
:103A08001037BD4680BD000080B485B000AF786037
:103A180039607B681B68FB607B683A4A93420FD029
:103A28007B68B3F1804F0BD07B68374A934207D04D
:103A38007B68364A934203D07B68354A934208D163
:103A4800FB6823F07003FB603B685B68FA6813430C
:103A5800FB607B682B4A93421BD07B68B3F1804F95
:103A680017D07B68284A934213D07B68274A934231
:103A78000FD07B68264A93420BD07B68254A934235
:103A880007D07B68244A934203D07B68234A934239
:103A980008D1FB6823F44073FB603B68DB68FA6875
:103AA8001343FB60FB6823F080023B685B691343A8
:103AB800FB607B68FA681A603B689A687B68DA6220
:103AC8003B681A687B689A627B680E4A934203D106
:103AD8003B681A697B681A637B6801225A617B68B4
:103AE8001B6903F00103012B05D17B681B6923F0D7
:103AF80001027B681A6100BF1437BD465DF8047B7C
:103B0800704700BF0000014000040040000800406A
:103B1800000C0040004001400044014000480140C2
:103B280080B487B000AF786039607B681B6A7B61BE
:103B38007B681B6A23F001027B681A627B685B68FA
:103B48003B617B689B69FB60FB6823F07003FB604B
:103B5800FB6823F00303FB603B681B68FA681343A8
:103B6800FB607B6923F002037B613B689B687A6991
:103B780013437B617B681C4A93420CD17B6923F019
:103B880008037B613B68DB687A6913437B617B6967
:103B980023F004037B617B68134A934211D13B698C
:103BA80023F480733B613B6923F400733B613B68FA
:103BB8005B693A6913433B613B689B693A69134304
:103BC8003B617B683A695A607B68FA689A613B682E
:103BD8005A687B685A637B687A691A6200BF1C3727
:103BE800BD465DF8047B70470000014080B487B093
:103BF80000AF786039607B681B6A7B617B681B6AF1
:103C080023F010027B681A627B685B683B617B6803
:103C18009B69FB60FB6823F4E043FB60FB6823F4CB
:103C28004073FB603B681B681B02FA681343FB6028
:103C38007B6923F020037B613B689B681B017A69E1
:103C480013437B617B681E4A93420DD17B6923F045
:103C580080037B613B68DB681B017A6913437B61E6
:103C68007B6923F040037B617B68154A934213D13B
:103C78003B6923F480633B613B6923F400633B6148
:103C88003B685B699B003A6913433B613B689B69EE
:103C98009B003A6913433B617B683A695A607B68C9
:103CA800FA689A613B685A687B689A637B687A69A4
:103CB8001A6200BF1C37BD465DF8047B704700BF21
:103CC8000000014080B487B000AF786039607B683D
:103CD8001B6A7B617B681B6A23F480727B681A62AB
:103CE8007B685B683B617B68DB69FB60FB6823F092
:103CF8007003FB60FB6823F00303FB603B681B68F1
:103D0800FA681343FB607B6923F400737B613B68AB
:103D18009B681B027A6913437B617B681D4A934247
:103D28000DD17B6923F400637B613B68DB681B0270
:103D38007A6913437B617B6923F480637B617B68C9
:103D4800144A934213D13B6923F480533B613B6986
:103D580023F400533B613B685B691B013A691343D9
:103D68003B613B689B691B013A6913433B617B6874
:103D78003A695A607B68FA68DA613B685A687B6816
:103D8800DA637B687A691A6200BF1C37BD465DF842
:103D9800047B70470000014080B487B000AF7860B2
:103DA80039607B681B6A3B617B681B6A23F480521D
:103DB8007B681A627B685B687B617B68DB69FB6098
:103DC800FB6823F4E043FB60FB6823F44073FB606B
:103DD8003B681B681B02FA681343FB603B6923F4CA
:103DE80000533B613B689B681B033A6913433B6183
:103DF8007B68104A934209D17B6923F480437B6135
:103E08003B685B699B017A6913437B617B687A69CC
:103E18005A607B68FA68DA613B685A687B681A649A
:103E28007B683A691A6200BF1C37BD465DF8047B9F
:103E3800704700BF0000014080B487B000AFF86051
:103E4800B9607A603B60FB681B6A3B61FB681B6A70
:103E580023F00102FB681A62FB689B697B61FB68BF
:103E6800244A934213D0FB68B3F1804F0FD0FB680C
:103E7800214A93420BD0FB68204A934207D0FB6843
:103E88001F4A934203D0FB681E4A934201D1012383
:103E980000E00023002B08D07B6923F003037B613B
:103EA8007A697B6813437B6103E07B6943F0010314
:103EB8007B617B6923F0F0037B613B681B01DBB20C
:103EC8007A6913437B613B6923F00A033B61BB6852
:103ED80003F00A033A6913433B61FB687A699A6104
:103EE800FB683A691A6200BF1C37BD465DF8047B5F
:103EF800704700BF00000140000400400008004077
:103F0800000C00400040014080B487B000AFF8606A
:103F1800B9607A60FB681B6A7B61FB681B6A23F0E7
:103F28000102FB681A62FB689B693B613B6923F0ED
:103F3800F0033B617B681B013A6913433B617B6972
:103F480023F00A037B617A69BB6813437B61FB68D2
:103F58003A699A61FB687A691A6200BF1C37BD46E4
:103F68005DF8047B704780B487B000AFF860B96033
:103F78007A603B60FB681B6A7B61FB681B6A23F005
:103F88001002FB681A62FB689B693B613B6923F47A
:103F980040733B617B681B023A6913433B613B6991
:103FA80023F470433B613B681B039BB23A6913439C
:103FB8003B617B6923F0A0037B61BB681B0103F0B5
:103FC800A0037A6913437B61FB683A699A61FB68CD
:103FD8007A691A6200BF1C37BD465DF8047B7047DA
:103FE80080B487B000AFF860B9607A60FB681B6A7C
:103FF8007B61FB681B6A23F01002FB681A62FB688E
:104008009B693B613B6923F470433B617B681B03FD
:104018003A6913433B617B6923F0A0037B61BB686A
:104028001B017A6913437B61FB683A699A61FB68F3
:104038007A691A6200BF1C37BD465DF8047B704779
:1040480080B487B000AFF860B9607A603B60FB6805
:104058001B6A7B61FB681B6A23F48072FB681A6227
:10406800FB68DB693B613B6923F003033B613A6909
:104078007B6813433B613B6923F0F0033B613B687A
:104088001B01DBB23A6913433B617B6923F420636C
:104098007B61BB681B0203F420637A6913437B616D
:1040A800FB683A69DA61FB687A691A6200BF1C37F3
:1040B800BD465DF8047B704780B487B000AFF860F8
:1040C800B9607A603B60FB681B6A7B61FB681B6AAE
:1040D80023F48052FB681A62FB68DB693B613B6929
:1040E80023F440733B617B681B023A6913433B61CD
:1040F8003B6923F470433B613B681B039BB23A69FD
:1041080013433B617B6923F420437B61BB681B033A
:1041180003F420437A6913437B61FB683A69DA61E7
:10412800FB687A691A6200BF1C37BD465DF8047BDC
:10413800704780B485B000AF786039607B689B6851
:10414800FB60FB6823F07003FB603A68FB6813436D
:1041580043F00703FB607B68FA689A6000BF143776
:10416800BD465DF8047B704780B487B000AFF86047
:10417800B9607A603B60FB689B687B617B6923F46C
:104188007F437B613B681A027B681A43BB68134311
:104198007A6913437B61FB687A699A6000BF1C37B0
:1041A800BD465DF8047B704780B487B000AFF86007
:1041B800B9607A60BB6803F01F03012202FA03F3B7
:1041C8007B61FB681A6A7B69DB431A40FB681A62E9
:1041D800FB681A6ABB6803F01F03796801FA03F3E6
:1041E8001A43FB681A6200BF1C37BD465DF8047BA2
:1041F8007047000080B485B000AF786039607B6894
:1042080093F83C30012B01D1022350E07B68012256
:1042180083F83C207B68022283F83D207B681B687A
:104228005B68FB607B681B689B68BB60FB6823F06E
:104238007003FB603B681B68FA681343FB607B688C
:104248001B68FA685A607B681B681C4A934218D03E
:104258007B681B68B3F1804F13D07B681B68184AD2
:1042680093420ED07B681B68164A934209D07B683C
:104278001B68154A934204D07B681B68134A934213
:104288000CD1BB6823F08003BB603B685B68BA68ED
:104298001343BB607B681B68BA689A607B6801221D
:1042A80083F83D207B68002283F83C2000231846D1
:1042B8001437BD465DF8047B704700BF000001401D
:1042C8000004004000080040000C0040004001408D
:1042D80080B582B000AF78607B68002B01D10123E4
:1042E80042E07B6893F84130DBB2002B06D17B6853
:1042F800002283F840207868FDF760FE7B6824225E
:1043080083F841207B681B68DA687B681B6822F4A5
:104318000052DA60786800F009FA7B681B681A694D
:104328007B681B6822F490421A617B681B685A6993
:104338007B681B6822F02A025A617B681B68DA686E
:104348007B681B6842F40052DA607B6800225A647A
:104358007B68202283F841207B68202283F8422052
:104368007B6800225A63002318460837BD4680BD83
:1043780080B58AB002AFF860B9603B601346FB8035
:1043880000237B61FB6893F84130DBB2202B75D1A9
:10439800BB68002B02D0FB88002B01D101236EE003
:1043A800FB6800225A64FB68212283F84120FDF74C
:1043B8006FFF7861FB68FA889A84FB68FA88DA8468
:1043C800FB689B68B3F5805F08D1FB681B69002B0D
:1043D80004D10023FB61BB68BB6103E0BB68FB61E0
:1043E8000023BB612EE03B6800937B69002280219B
:1043F800F86800F0DFF80346002B05D0FB682022A0
:1044080083F8412003233AE0FB69002B0BD1BB69F9
:104418001B881A46FB681B68C2F308025A60BB690E
:104428000233BB6107E0FB691A78FB681B685A60B6
:10443800FB690133FB61FB68DB8C9BB2013B9AB2E1
:10444800FB68DA84FB68DB8C9BB2002BCBD13B6822
:1044580000937B6900224021F86800F0ABF803461E
:10446800002B05D0FB68202283F84120032306E0B7
:10447800FB68202283F84120002300E0022318462D
:104488002037BD4680BD80B58AB002AFF860B960FC
:104498003B601346FB8000237B61FB6893F8423046
:1044A800DBB2202B40F08180BB68002B02D0FB8858
:1044B800002B01D1012379E0FB6800225A64FB68D4
:1044C800222283F84220FB6800221A63FDF7E0FEEF
:1044D8007861FB68FA889A85FB68FA88DA85FB6850
:1044E8009B68B3F5805F08D1FB681B69002B04D17A
:1044F8000023FB61BB68BB6103E0BB68FB61002371
:10450800BB6147E03B6800937B6900222021F86883
:1045180000F050F80346002B05D0FB68202283F8F2
:104528004220032342E0FB69002B0CD1FB681B6887
:104538005B689BB2C3F308039AB2BB691A80BB6974
:104548000233BB611FE0FB689B68B3F5805F07D04F
:10455800FB689B68002B0AD1FB681B69002B06D1FE
:10456800FB681B685B68DAB2FB691A7008E0FB68D5
:104578001B685B68DBB203F07F03DAB2FB691A7071
:10458800FB690133FB61FB68DB8D9BB2013B9AB28F
:10459800FB68DA85FB68DB8D9BB2002BB2D1FB6828
:1045A800202283F84220002300E002231846203707
:1045B800BD4680BD80B586B000AFF860B9603B608D
:1045C8001346FB713BE03B6AB3F1FF3F37D0FDF781
:1045D8005FFE02463B68D31A3A6A9A4202D33B6AA4
:1045E800002B01D103233AE0FB681B68DB6803F06A
:1045F8000403002B23D0BB68802B20D0BB68402B42
:104608001DD0FB681B681B6803F00803082B16D134
:1046180000237B61FB681B681B687B61FB681B6868
:104628005B687B617B69F86800F01DF8FB6808220D
:104638005A64FB68002283F8402001230FE0FB68DE
:104648001B681A68BB681340BA689A420CBF0123FA
:104658000023DBB21A46FB799A42B4D000231846ED
:104668001837BD4680BD80B495B000AF78607B68D0
:104678001B680C337B637B6B53E8003F3B633B6BEE
:1046880023F49073FB647B681B680C33FA6C3A6400
:10469800FB63F96B3A6C41E80023BB63BB6B002BEF
:1046A800E5D17B681B6814333B623B6A53E8003FE3
:1046B800FB61FB6923F00103BB647B681B6814334F
:1046C800BA6CFA62BB62B96AFA6A41E800237B6293
:1046D8007B6A002BE5D17B681B6B012B19D17B68AA
:1046E8001B680C33FB60FB6853E8003FBB60BB688A
:1046F80023F010037B647B681B680C337A6CBA6107
:104708007B617969BA6941E800233B613B69002B09
:10471800E5D17B68202283F842207B6800221A6357
:1047280000BF5437BD465DF8047B70472DE9B04F94
:10473800C0B000AFC7F8F400D7F8F4301B681B69A5
:1047480023F44050D7F8F430D968D7F8F4301A6811
:1047580040EA01031361D7F8F4309A68D7F8F430C7
:104768001B691A43D7F8F4305B691A43D7F8F43059
:10477800DB691343C7F8F830D7F8F4301B68DB68F7
:1047880023F4164121F00C01D7F8F4301A68D7F851
:10479800F8300B43D360D7F8F4301B685B6923F417
:1047A8004070D7F8F4309969D7F8F4301A6840EABD
:1047B80001035361D7F8F4301A688F4B9A4205D039
:1047C800D7F8F4301A688D4B9A4204D1FEF770FC82
:1047D800C7F8FC0003E0FEF757FCC7F8FC00D7F861
:1047E800F430DB69B3F5004F40F00C81D7F8FC30AA
:1047F8000022C7F8E830C7F8EC20D7E93A45224646
:104808002B469118B9655B41FB65D7E9162321460C
:1048180012EB0108294643EB01094FF000024FF063
:1048280000034FEAC90343EA58734FEAC8029046A7
:104838009946234618EB0303C7F8E0302B4649EBAB
:104848000303C7F8E430D7F8F4305B680022C7F8F0
:10485800D830C7F8DC20D7E936120B46DB183B65A1
:10486800134642EB03037B65D7E91423D7E93801E4
:10487800FCF79CF802460B46614BA3FB02235B093D
:104888001C01D7F8FC300022C7F8D030C7F8D42074
:10489800D7E9348942464B469118B9645B41FB64B9
:1048A800D7E91223414612EB010A494643EB010BB3
:1048B8004FF000024FF000034FEACB0343EA5A736C
:1048C8004FEACA0292469B4643461AEB0303C7F8CF
:1048D800C8304B464BEB0303C7F8CC30D7F8F4305D
:1048E8005B680022C7F8C030C7F8C420D7E9301287
:1048F8000B46DB183B64134642EB03037B64D7E9A2
:104908001023D7E93201FCF751F802460B4611464D
:104918003B4BA3FB01235B09642202FB03F3CB1A85
:10492800DB0003F13202364BA3FB02235B095B0079
:1049380003F4F8731C44D7F8FC300022C7F8B830E9
:10494800C7F8BC20D7E92E8942464B469118B9636F
:104958005B41FB63D7E90E23414651183963494649
:104968004B417B634FF000024FF00003D7E90CABDB
:104978005946CB00514643EA51735146CA00104686
:104988001946034642469B18C7F8B0304B460A46BC
:1049980042EB0303C7F8B430D7F8F4305B68002261
:1049A800C7F8A830C7F8AC20D7E92A120B46DB189D
:1049B800BB62134642EB0303FB62D7E90A23D7E93C
:1049C8002C01FBF7F3FF02460B460D4BA3FB02132A
:1049D8005B09642101FB03F3D31ADB003233084A75
:1049E800A2FB03235B0903F00702D7F8F4301B6826
:1049F80022449A6006E100BF001001400014014003
:104A08001F85EB51D7F8FC300022C7F8A030C7F853
:104A1800A420D7E9288942464B46911839625B4160
:104A28007B62D7E9082341465418494643EB010500
:104A38004FF000024FF00003EB0043EA5473E2002A
:104A480014461D464346E318C7F898304B4645EBD5
:104A58000303C7F89C30D7F8F4305B680022C7F826
:104A68009030C7F894204FF000024FF00003D7E9C8
:104A7800244529468B00214643EA917321468A0042
:104A8800D7E92601FBF792FF02460B46604BA3FBD2
:104A980002235B091C01D7F8FC300022C7F88830D4
:104AA800C7F88C20D7E9228942464B469118B9614C
:104AB8005B41FB61D7E906234146511839614946F4
:104AC8004B417B614FF000024FF00003D7E904AB84
:104AD8005946CB00514643EA51735146CA00104625
:104AE8001946034642469B18C7F880304B460A468B
:104AF80042EB0303C7F88430D7F8F4305B68002230
:104B0800BB67FA674FF000024FF00003D7E91E8930
:104B180049468B00414643EA917341468A00D7E9EA
:104B28002001FBF743FF02460B461146384BA3FB17
:104B380001235B09642202FB03F3CB1A1B01323306
:104B4800334AA2FB03235B0903F0F0031C44D7F8A4
:104B5800FC3000223B677A67D7E91C8942464B46FE
:104B68009118B9605B41FB60D7E9022341465118AF
:104B7800396049464B417B604FF000024FF000031B
:104B8800D7E900AB5946CB00514643EA5173514629
:104B9800CA0010461946034642469B18BB664B4658
:104BA8000A4642EB0303FB66D7F8F4305B68002241
:104BB8003B667A664FF000024FF00003D7E9188988
:104BC80049468B00414643EA917341468A00D7E93A
:104BD8001A01FBF7EBFE02460B460D4BA3FB021333
:104BE8005B09642101FB03F3D31A1B013233084A22
:104BF800A2FB03235B0903F00F02D7F8F4301B680C
:104C080022449A6000BF07F58077BD46BDE8B08FA3
:104C18001F85EB5102440346934200D1704703F8C5
:104C2800011BF9E770B50D4D0D4C641BA41000264F
:104C3800A64209D10B4D0C4C00F018F8641BA410C7
:104C48000026A64205D170BD55F8043B98470136A9
:104C5800EEE755F8043B98470136F2E7B44C0008F4
:104C6800B44C0008B44C0008B84C0008F8B500BFB4
:104C7800F8BC08BC9E467047F8B500BFF8BC08BC35
:044C88009E4670478D
:104C8C0048656C6C6F000000000000000000000024
:104C9C0001020304060708090000000001020304D6
:084CAC0038BDFF7F010000008C
:044CB400BD01000836
:044CB8009901000856
:0C4CBC000024F4001000000001000000C3
:040000050800217955
:00000001FF
